{
  "contractName": "SupplyChain",
  "abi": [
    {
      "inputs": [],
      "payable": false,
      "stateMutability": "nonpayable",
      "type": "constructor"
    },
    {
      "anonymous": false,
      "inputs": [
        {
          "indexed": true,
          "name": "sku",
          "type": "uint256"
        }
      ],
      "name": "ForSale",
      "type": "event"
    },
    {
      "anonymous": false,
      "inputs": [
        {
          "indexed": true,
          "name": "sku",
          "type": "uint256"
        }
      ],
      "name": "Sold",
      "type": "event"
    },
    {
      "anonymous": false,
      "inputs": [
        {
          "indexed": true,
          "name": "sku",
          "type": "uint256"
        }
      ],
      "name": "Shipped",
      "type": "event"
    },
    {
      "anonymous": false,
      "inputs": [
        {
          "indexed": true,
          "name": "sku",
          "type": "uint256"
        }
      ],
      "name": "Received",
      "type": "event"
    },
    {
      "constant": false,
      "inputs": [
        {
          "name": "_name",
          "type": "string"
        },
        {
          "name": "_price",
          "type": "uint256"
        }
      ],
      "name": "addItem",
      "outputs": [],
      "payable": false,
      "stateMutability": "nonpayable",
      "type": "function"
    },
    {
      "constant": false,
      "inputs": [
        {
          "name": "sku",
          "type": "uint256"
        }
      ],
      "name": "buyItem",
      "outputs": [],
      "payable": true,
      "stateMutability": "payable",
      "type": "function"
    },
    {
      "constant": false,
      "inputs": [
        {
          "name": "sku",
          "type": "uint256"
        }
      ],
      "name": "shipItem",
      "outputs": [],
      "payable": false,
      "stateMutability": "nonpayable",
      "type": "function"
    },
    {
      "constant": false,
      "inputs": [
        {
          "name": "sku",
          "type": "uint256"
        }
      ],
      "name": "receiveItem",
      "outputs": [],
      "payable": false,
      "stateMutability": "nonpayable",
      "type": "function"
    },
    {
      "constant": true,
      "inputs": [
        {
          "name": "_sku",
          "type": "uint256"
        }
      ],
      "name": "fetchItem",
      "outputs": [
        {
          "name": "name",
          "type": "string"
        },
        {
          "name": "sku",
          "type": "uint256"
        },
        {
          "name": "price",
          "type": "uint256"
        },
        {
          "name": "state",
          "type": "uint256"
        },
        {
          "name": "seller",
          "type": "address"
        },
        {
          "name": "buyer",
          "type": "address"
        }
      ],
      "payable": false,
      "stateMutability": "view",
      "type": "function"
    }
  ],
  "bytecode": "0x608060405234801561001057600080fd5b50336000806101000a81548173ffffffffffffffffffffffffffffffffffffffff021916908373ffffffffffffffffffffffffffffffffffffffff1602179055506000600181905550610c88806100686000396000f30060806040526004361061006d576000357c0100000000000000000000000000000000000000000000000000000000900463ffffffff16806362d6bbdf14610072578063a26be999146100e5578063ad4b9cfb14610112578063e7fb74c714610233578063f61c899a14610253575b600080fd5b34801561007e57600080fd5b506100e3600480360381019080803590602001908201803590602001908080601f016020809104026020016040519081016040528093929190818152602001838380828437820191505050505050919291929080359060200190929190505050610280565b005b3480156100f157600080fd5b5061011060048036038101908080359060200190929190505050610427565b005b34801561011e57600080fd5b5061013d600480360381019080803590602001909291905050506105b4565b60405180806020018781526020018681526020018581526020018473ffffffffffffffffffffffffffffffffffffffff1673ffffffffffffffffffffffffffffffffffffffff1681526020018373ffffffffffffffffffffffffffffffffffffffff1673ffffffffffffffffffffffffffffffffffffffff168152602001828103825288818151815260200191508051906020019080838360005b838110156101f35780820151818401526020810190506101d8565b50505050905090810190601f1680156102205780820380516001836020036101000a031916815260200191505b5097505050505050505060405180910390f35b6102516004803603810190808035906020019092919050505061075f565b005b34801561025f57600080fd5b5061027e60048036038101908080359060200190929190505050610a2b565b005b6001547fa96ae0fc3224ebd79eebfe54bd130cc9cb94416cddd1f2386115e00b7253246860405160405180910390a260c0604051908101604052808381526020016001548152602001828152602001600060038111156102dc57fe5b81526020013373ffffffffffffffffffffffffffffffffffffffff168152602001600073ffffffffffffffffffffffffffffffffffffffff168152506002600060015481526020019081526020016000206000820151816000019080519060200190610349929190610bb7565b50602082015181600101556040820151816002015560608201518160030160006101000a81548160ff0219169083600381111561038257fe5b021790555060808201518160030160016101000a81548173ffffffffffffffffffffffffffffffffffffffff021916908373ffffffffffffffffffffffffffffffffffffffff16021790555060a08201518160040160006101000a81548173ffffffffffffffffffffffffffffffffffffffff021916908373ffffffffffffffffffffffffffffffffffffffff16021790555090505060018054016001819055505050565b806002600381111561043557fe5b6002600083815260200190815260200160002060030160009054906101000a900460ff16600381111561046457fe5b1415156104d9576040517f08c379a00000000000000000000000000000000000000000000000000000000081526004018080602001828103825260198152602001807f5374617465206e6565647320746f20626520536869707065640000000000000081525060200191505060405180910390fd5b6002600083815260200190815260200160002060040160009054906101000a900473ffffffffffffffffffffffffffffffffffffffff168073ffffffffffffffffffffffffffffffffffffffff163373ffffffffffffffffffffffffffffffffffffffff1614151561054a57600080fd5b60036002600085815260200190815260200160002060030160006101000a81548160ff0219169083600381111561057d57fe5b0217905550827fa8142743f8f70a4c26f3691cf4ed59718381fb2f18070ec52be1f1022d85555760405160405180910390a2505050565b60606000806000806000600260008881526020019081526020016000206000018054600181600116156101000203166002900480601f0160208091040260200160405190810160405280929190818152602001828054600181600116156101000203166002900480156106685780601f1061063d57610100808354040283529160200191610668565b820191906000526020600020905b81548152906001019060200180831161064b57829003601f168201915b5050505050955060026000888152602001908152602001600020600101549450600260008881526020019081526020016000206002015493506002600088815260200190815260200160002060030160009054906101000a900460ff1660038111156106d057fe5b92506002600088815260200190815260200160002060030160019054906101000a900473ffffffffffffffffffffffffffffffffffffffff1691506002600088815260200190815260200160002060040160009054906101000a900473ffffffffffffffffffffffffffffffffffffffff16905085858585858595509550955095509550955091939550919395565b806000600381111561076d57fe5b6002600083815260200190815260200160002060030160009054906101000a900460ff16600381111561079c57fe5b141515610811576040517f08c379a00000000000000000000000000000000000000000000000000000000081526004018080602001828103825260198152602001807f5374617465206e6565647320746f20626520466f7253616c650000000000000081525060200191505060405180910390fd5b600260008381526020019081526020016000206002015480341015151561083757600080fd5b826000806002600087815260200190815260200160002060030160019054906101000a900473ffffffffffffffffffffffffffffffffffffffff1673ffffffffffffffffffffffffffffffffffffffff166108fc60026000898152602001908152602001600020600201549081150290604051600060405180830381858888f193505050501580156108cd573d6000803e3d6000fd5b50336002600088815260200190815260200160002060040160006101000a81548173ffffffffffffffffffffffffffffffffffffffff021916908373ffffffffffffffffffffffffffffffffffffffff16021790555060016002600088815260200190815260200160002060030160006101000a81548160ff0219169083600381111561095657fe5b0217905550857f92f64ca637d023f354075a4be751b169c1a8a9ccb6d33cdd0cb352054399572760405160405180910390a26002600084815260200190815260200160002060020154915081340390506002600084815260200190815260200160002060040160009054906101000a900473ffffffffffffffffffffffffffffffffffffffff1673ffffffffffffffffffffffffffffffffffffffff166108fc829081150290604051600060405180830381858888f19350505050158015610a22573d6000803e3d6000fd5b50505050505050565b8060016003811115610a3957fe5b6002600083815260200190815260200160002060030160009054906101000a900460ff166003811115610a6857fe5b141515610add576040517f08c379a00000000000000000000000000000000000000000000000000000000081526004018080602001828103825260168152602001807f5374617465206e6565647320746f20626520536f6c640000000000000000000081525060200191505060405180910390fd5b6002600083815260200190815260200160002060030160019054906101000a900473ffffffffffffffffffffffffffffffffffffffff168073ffffffffffffffffffffffffffffffffffffffff163373ffffffffffffffffffffffffffffffffffffffff16141515610b4e57600080fd5b600280600085815260200190815260200160002060030160006101000a81548160ff02191690836003811115610b8057fe5b0217905550827ff00b9a5725b80c54016f42114f6ed7792d22eecb116011c4afac29c57bef6c9560405160405180910390a2505050565b828054600181600116156101000203166002900490600052602060002090601f016020900481019282601f10610bf857805160ff1916838001178555610c26565b82800160010185558215610c26579182015b82811115610c25578251825591602001919060010190610c0a565b5b509050610c339190610c37565b5090565b610c5991905b80821115610c55576000816000905550600101610c3d565b5090565b905600a165627a7a72305820b801de3f8e3b43395fb9a13f1acb1277d03e64031e45f2b137d973b0999d789a0029",
  "source": "pragma solidity ^0.4.23;\n\ncontract SupplyChain {\n\n  /* set owner */\n  address owner;\n\n  /* Add a variable called skuCount to track the most recent sku # */\n  uint skuCount;\n\n  /* Add a line that creates a public mapping that maps the SKU (a number) to an Item.\n     Call this mappings items\n  */\n  mapping(uint => Item) items;\n\n  /* Add a line that creates an enum called State. This should have 4 states\n    ForSale\n    Sold\n    Shipped\n    Received\n    (declaring them in this order is important for testing)\n  */\n  enum State {ForSale, Sold, Shipped, Received}\n\n  /* Create a struct named Item.\n    Here, add a name, sku, price, state, seller, and buyer\n    We've left you to figure out what the appropriate types are,\n    if you need help you can ask around :)\n  */\n  struct Item {\n    string name;\n    uint sku;\n    uint price; \n    State state;\n    address seller;\n    address buyer;\n  }\n\n  /* Create 4 events with the same name as each possible State (see above)\n    Each event should accept one argument, the sku*/\n    event ForSale(uint indexed sku);\n    event Sold(uint indexed sku);\n    event Shipped(uint indexed sku);\n    event Received(uint indexed sku);\n\n/* Create a modifer that checks if the msg.sender is the owner of the contract */\n  modifier onlyOwner() {\n    require(msg.sender == owner);\n    _;\n  }\n\n  modifier verifyCaller (address _address) { require (msg.sender == _address); _;}\n\n  modifier paidEnough(uint _price) { require(msg.value >= _price); _;}\n\n  modifier checkValue(uint _sku) {\n    //refund them after pay for item (why it is before, _ checks for logic before func)\n    _;\n    uint _price = items[_sku].price;\n    uint amountToRefund = msg.value - _price;\n    items[_sku].buyer.transfer(amountToRefund);\n  }\n\n  /* For each of the following modifiers, use what you learned about modifiers\n   to give them functionality. For example, the forSale modifier should require\n   that the item with the given sku has the state ForSale. */\n  modifier forSale (uint sku) { require(items[sku].state == State.ForSale, \"State needs to be ForSale\"); _;}\n  modifier sold    (uint sku) { require(items[sku].state == State.Sold, \"State needs to be Sold\"); _;}\n  modifier shipped (uint sku) { require(items[sku].state == State.Shipped, \"State needs to be Shipped\"); _;}\n  modifier received(uint sku) { require(items[sku].state == State.Received, \"State needs to be Received\"); _;}\n\n\n  constructor() public {\n    /* Here, set the owner as the person who instantiated the contract\n       and set your skuCount to 0. */\n       owner = msg.sender;\n       skuCount = 0;\n  }\n\n  function addItem(string _name, uint _price) public {\n    emit ForSale(skuCount);\n    items[skuCount] = Item({name: _name, sku: skuCount, price: _price, state: State.ForSale, seller: msg.sender, buyer: 0});\n    skuCount = skuCount + 1;\n  }\n\n  /* Add a keyword so the function can be paid. This function should transfer money\n    to the seller, set the buyer as the person who called this transaction, and set the state\n    to Sold. Be careful, this function should use 3 modifiers to check \n    before 1) if the item is for sale,\n    before 2) if the buyer paid enough\n    ...\n    after the function is called : check the value to make sure the buyer is\n    refunded any excess ether sent. Remember to call the event associated with this function!*/\n\n  function buyItem(uint sku)\n    public\n    payable\n    forSale(sku)\n    paidEnough(items[sku].price)\n    checkValue(sku)\n  {\n    items[sku].seller.transfer(items[sku].price);\n    items[sku].buyer = msg.sender;\n    items[sku].state = State.Sold;\n    emit Sold(sku);\n  }\n\n  /* Add 2 modifiers to check if the item is sold already, and that the person calling this function\n  is the seller. Change the state of the item to shipped. Remember to call the event associated with this function!*/\n  function shipItem(uint sku)\n    public\n    sold(sku)\n    verifyCaller(items[sku].seller)\n  {\n    items[sku].state = State.Shipped;\n    emit Shipped(sku);\n  }\n\n  /* Add 2 modifiers to check if the item is shipped already, and that the person calling this function\n  is the buyer. Change the state of the item to received. Remember to call the event associated with this function!*/\n  function receiveItem(uint sku)\n    public\n    shipped(sku)\n    verifyCaller(items[sku].buyer)\n  {\n    items[sku].state = State.Received;\n    emit Received(sku);\n  }\n\n  /* We have these functions completed so we can run tests, just ignore it :) */\n  function fetchItem(uint _sku) public view returns (string name, uint sku, uint price, uint state, address seller, address buyer) {\n    name = items[_sku].name;\n    sku = items[_sku].sku;\n    price = items[_sku].price;\n    state = uint(items[_sku].state);\n    seller = items[_sku].seller;\n    buyer = items[_sku].buyer;\n    return (name, sku, price, state, seller, buyer);\n  }\n\n}\n",
  "sourcePath": "/home/sum/DEV/supply_chain/contracts/SupplyChain.sol",
  "compiler": {
    "name": "solc",
    "version": "0.4.24+commit.e67f0147.Emscripten.clang"
  },
  "schemaVersion": "2.0.1",
  "updatedAt": "2018-08-08T12:07:12.459Z"
}